{
  "contractName": "coinFlip",
  "abi": [
    {
      "anonymous": false,
      "inputs": [
        {
          "indexed": false,
          "internalType": "string",
          "name": "",
          "type": "string"
        }
      ],
      "name": "LogNewQuery",
      "type": "event"
    },
    {
      "anonymous": false,
      "inputs": [
        {
          "indexed": false,
          "internalType": "uint256",
          "name": "",
          "type": "uint256"
        }
      ],
      "name": "generatedRandomNumber",
      "type": "event"
    },
    {
      "constant": false,
      "inputs": [],
      "name": "placeBet",
      "outputs": [],
      "payable": true,
      "stateMutability": "payable",
      "type": "function"
    },
    {
      "constant": false,
      "inputs": [],
      "name": "startFlipCoin",
      "outputs": [],
      "payable": true,
      "stateMutability": "payable",
      "type": "function"
    },
    {
      "constant": false,
      "inputs": [
        {
          "internalType": "uint256",
          "name": "amount",
          "type": "uint256"
        }
      ],
      "name": "payOut",
      "outputs": [],
      "payable": false,
      "stateMutability": "nonpayable",
      "type": "function"
    },
    {
      "constant": true,
      "inputs": [],
      "name": "getBalance",
      "outputs": [
        {
          "internalType": "uint256",
          "name": "",
          "type": "uint256"
        }
      ],
      "payable": false,
      "stateMutability": "view",
      "type": "function"
    },
    {
      "constant": true,
      "inputs": [],
      "name": "getPot",
      "outputs": [
        {
          "internalType": "uint256",
          "name": "",
          "type": "uint256"
        }
      ],
      "payable": false,
      "stateMutability": "view",
      "type": "function"
    },
    {
      "constant": true,
      "inputs": [],
      "name": "getCommitedPot",
      "outputs": [
        {
          "internalType": "uint256",
          "name": "",
          "type": "uint256"
        }
      ],
      "payable": false,
      "stateMutability": "view",
      "type": "function"
    },
    {
      "constant": false,
      "inputs": [],
      "name": "addPot",
      "outputs": [],
      "payable": true,
      "stateMutability": "payable",
      "type": "function"
    },
    {
      "constant": false,
      "inputs": [
        {
          "internalType": "uint256",
          "name": "amount",
          "type": "uint256"
        }
      ],
      "name": "removePot",
      "outputs": [],
      "payable": false,
      "stateMutability": "nonpayable",
      "type": "function"
    },
    {
      "constant": false,
      "inputs": [
        {
          "internalType": "address",
          "name": "player",
          "type": "address"
        }
      ],
      "name": "unlockPlayer",
      "outputs": [],
      "payable": false,
      "stateMutability": "nonpayable",
      "type": "function"
    },
    {
      "constant": false,
      "inputs": [
        {
          "internalType": "bytes32",
          "name": "_queryId",
          "type": "bytes32"
        },
        {
          "internalType": "string",
          "name": "_result",
          "type": "string"
        },
        {
          "internalType": "bytes",
          "name": "_proof",
          "type": "bytes"
        }
      ],
      "name": "__callback",
      "outputs": [],
      "payable": false,
      "stateMutability": "nonpayable",
      "type": "function"
    },
    {
      "constant": false,
      "inputs": [
        {
          "internalType": "bytes32",
          "name": "_myid",
          "type": "bytes32"
        },
        {
          "internalType": "string",
          "name": "_result",
          "type": "string"
        }
      ],
      "name": "__callback",
      "outputs": [],
      "payable": false,
      "stateMutability": "nonpayable",
      "type": "function"
    }
  ],
  "bytecode": "0x6080604052336000806101000a81548173ffffffffffffffffffffffffffffffffffffffff021916908373ffffffffffffffffffffffffffffffffffffffff160217905550613033806100536000396000f3fe60806040526004361061009c5760003560e01c8063954a5c1911610064578063954a5c191461033c578063b0bd825f14610346578063cc47678014610397578063d95812c3146103d2578063da333ca6146103fd578063f90f4560146104385761009c565b8063033a59de146100a157806312065fe0146100ab57806327dc297e146100d657806338bbfa50146101a8578063403c9fa814610311575b600080fd5b6100a9610442565b005b3480156100b757600080fd5b506100c0610793565b6040518082815260200191505060405180910390f35b3480156100e257600080fd5b506101a6600480360360408110156100f957600080fd5b81019080803590602001909291908035906020019064010000000081111561012057600080fd5b82018360208201111561013257600080fd5b8035906020019184600183028401116401000000008311171561015457600080fd5b91908080601f016020809104026020016040519081016040528093929190818152602001838380828437600081840152601f19601f8201169050808301925050505050505091929192905050506107da565b005b3480156101b457600080fd5b5061030f600480360360608110156101cb57600080fd5b8101908080359060200190929190803590602001906401000000008111156101f257600080fd5b82018360208201111561020457600080fd5b8035906020019184600183028401116401000000008311171561022657600080fd5b91908080601f016020809104026020016040519081016040528093929190818152602001838380828437600081840152601f19601f8201169050808301925050505050505091929192908035906020019064010000000081111561028957600080fd5b82018360208201111561029b57600080fd5b803590602001918460018302840111640100000000831117156102bd57600080fd5b91908080601f016020809104026020016040519081016040528093929190818152602001838380828437600081840152601f19601f82011690508083019250505050505050919291929050505061081d565b005b34801561031d57600080fd5b506103266109f8565b6040518082815260200191505060405180910390f35b610344610a02565b005b34801561035257600080fd5b506103956004803603602081101561036957600080fd5b81019080803573ffffffffffffffffffffffffffffffffffffffff169060200190929190505050610a6d565b005b3480156103a357600080fd5b506103d0600480360360208110156103ba57600080fd5b8101908080359060200190929190505050610b21565b005b3480156103de57600080fd5b506103e7610be7565b6040518082815260200191505060405180910390f35b34801561040957600080fd5b506104366004803603602081101561042057600080fd5b8101908080359060200190929190505050610bf1565b005b610440610d4b565b005b6002600754600654038161045257fe5b04600a60003373ffffffffffffffffffffffffffffffffffffffff1673ffffffffffffffffffffffffffffffffffffffff1681526020019081526020016000205411156104ea576040517f08c379a000000000000000000000000000000000000000000000000000000000815260040180806020018281038252602b815260200180612f83602b913960400191505060405180910390fd5b67016345785d8a0000600a60003373ffffffffffffffffffffffffffffffffffffffff1673ffffffffffffffffffffffffffffffffffffffff16815260200190815260200160002054101561058a576040517f08c379a0000000000000000000000000000000000000000000000000000000008152600401808060200182810382526023815260200180612fdc6023913960400191505060405180910390fd5b600b60003373ffffffffffffffffffffffffffffffffffffffff1673ffffffffffffffffffffffffffffffffffffffff16815260200190815260200160002060009054906101000a900460ff161561062d576040517f08c379a0000000000000000000000000000000000000000000000000000000008152600401808060200182810382526021815260200180612f626021913960400191505060405180910390fd5b6000809050600062030d409050600061064883600184610e26565b9050336008600083815260200190815260200160002060006101000a81548173ffffffffffffffffffffffffffffffffffffffff021916908373ffffffffffffffffffffffffffffffffffffffff1602179055506001600b60003373ffffffffffffffffffffffffffffffffffffffff1673ffffffffffffffffffffffffffffffffffffffff16815260200190815260200160002060006101000a81548160ff021916908315150217905550600a60003373ffffffffffffffffffffffffffffffffffffffff1673ffffffffffffffffffffffffffffffffffffffff168152602001908152602001600020546007600082825401925050819055507f746f97619dd4e795da5586af48fcbd8a87f2860948dec93277b5b67b2f105cab60405180806020018281038252602e815260200180612fae602e913960400191505060405180910390a1505050565b6000600a60003373ffffffffffffffffffffffffffffffffffffffff1673ffffffffffffffffffffffffffffffffffffffff16815260200190815260200160002054905090565b610819828260006040519080825280601f01601f1916602001820160405280156108135781602001600182028038833980820191505090505b5061081d565b5050565b6108256113c1565b73ffffffffffffffffffffffffffffffffffffffff163373ffffffffffffffffffffffffffffffffffffffff161461085c57600080fd5b60006008600085815260200190815260200160002060009054906101000a900473ffffffffffffffffffffffffffffffffffffffff169050600b60008273ffffffffffffffffffffffffffffffffffffffff1673ffffffffffffffffffffffffffffffffffffffff16815260200190815260200160002060009054906101000a900460ff166108ea57600080fd5b60006002846040516020018082805190602001908083835b602083106109255780518252602082019150602081019050602083039250610902565b6001836020036101000a0380198251168184511680821785525050505050509050019150506040516020818303038152906040528051906020012060001c8161096a57fe5b06905080600960008473ffffffffffffffffffffffffffffffffffffffff1673ffffffffffffffffffffffffffffffffffffffff168152602001908152602001600020819055507fc13d60fe9dffdb6908d2d446cd18134373a51db0738ee04f296eeb9128121cbc816040518082815260200191505060405180910390a16109f1826116e1565b5050505050565b6000600654905090565b6000809054906101000a900473ffffffffffffffffffffffffffffffffffffffff1673ffffffffffffffffffffffffffffffffffffffff163373ffffffffffffffffffffffffffffffffffffffff1614610a5b57600080fd5b34600660008282540192505081905550565b6000809054906101000a900473ffffffffffffffffffffffffffffffffffffffff1673ffffffffffffffffffffffffffffffffffffffff163373ffffffffffffffffffffffffffffffffffffffff1614610ac657600080fd5b6000600b60008373ffffffffffffffffffffffffffffffffffffffff1673ffffffffffffffffffffffffffffffffffffffff16815260200190815260200160002060006101000a81548160ff02191690831515021790555050565b6000809054906101000a900473ffffffffffffffffffffffffffffffffffffffff1673ffffffffffffffffffffffffffffffffffffffff163373ffffffffffffffffffffffffffffffffffffffff1614610b7a57600080fd5b60075460065403811115610b8d57600080fd5b806006600082825403925050819055503373ffffffffffffffffffffffffffffffffffffffff166108fc829081150290604051600060405180830381858888f19350505050158015610be3573d6000803e3d6000fd5b5050565b6000600754905090565b600a60003373ffffffffffffffffffffffffffffffffffffffff1673ffffffffffffffffffffffffffffffffffffffff16815260200190815260200160002054811115610c3d57600080fd5b600b60003373ffffffffffffffffffffffffffffffffffffffff1673ffffffffffffffffffffffffffffffffffffffff16815260200190815260200160002060009054906101000a900460ff1615610c9457600080fd5b80600a60003373ffffffffffffffffffffffffffffffffffffffff1673ffffffffffffffffffffffffffffffffffffffff1681526020019081526020016000206000828254039250508190555080600660008282540392505081905550806007600082825403925050819055503373ffffffffffffffffffffffffffffffffffffffff166108fc829081150290604051600060405180830381858888f19350505050158015610d47573d6000803e3d6000fd5b5050565b67016345785d8a0000341015610d6057600080fd5b600b60003373ffffffffffffffffffffffffffffffffffffffff1673ffffffffffffffffffffffffffffffffffffffff16815260200190815260200160002060009054906101000a900460ff1615610db757600080fd5b34600a60003373ffffffffffffffffffffffffffffffffffffffff1673ffffffffffffffffffffffffffffffffffffffff168152602001908152602001600020600082825401925050819055503460066000828254019250508190555034600760008282540192505081905550565b60008083118015610e38575060208311155b610e4157600080fd5b600a84029350606060016040519080825280601f01601f191660200182016040528015610e7d5781602001600182028038833980820191505090505b5090508360f81b81600081518110610e9157fe5b60200101907effffffffffffffffffffffffffffffffffffffffffffffffffffffffffffff1916908160001a905350606060206040519080825280601f01601f191660200182016040528015610ef65781602001600182028038833980820191505090505b509050606060206040519080825280601f01601f191660200182016040528015610f2f5781602001600182028038833980820191505090505b5090506000610f3c611875565b905060208352424118600143034018602084015260208252806020830152606060206040519080825280601f01601f191660200182016040528015610f905781602001600182028038833980820191505090505b509050886020820152606060086040519080825280601f01601f191660200182016040528015610fcf5781602001600182028038833980820191505090505b509050610fe28260186008846000611b95565b50610feb612e7b565b604051806080016040528087815260200188815260200186815260200184815250905060006110506040518060400160405280600681526020017f72616e646f6d0000000000000000000000000000000000000000000000000000815250838c611bf4565b9050606060086040519080825280601f01601f1916602001820160405280156110885781602001600182028038833980820191505090505b50905060208401517f0100000000000000000000000000000000000000000000000000000000000000810460278301537e01000000000000000000000000000000000000000000000000000000000000810460268301537d010000000000000000000000000000000000000000000000000000000000810460258301537c0100000000000000000000000000000000000000000000000000000000810460248301537b01000000000000000000000000000000000000000000000000000000810460238301537a0100000000000000000000000000000000000000000000000000008104602283015379010000000000000000000000000000000000000000000000000081046021830153780100000000000000000000000000000000000000000000000081046020830153506113ae8282856001600481106111c757fe5b60200201516002876000600481106111db57fe5b60200201516040518082805190602001908083835b6020831061121357805182526020820191506020810190506020830392506111f0565b6001836020036101000a038019825116818451168082178552505050505050905001915050602060405180830381855afa158015611255573d6000803e3d6000fd5b5050506040513d602081101561126a57600080fd5b81019080805190602001909291905050508760026004811061128857fe5b60200201516040516020018085805190602001908083835b602083106112c357805182526020820191506020810190506020830392506112a0565b6001836020036101000a03801982511681845116808217855250505050505090500184805190602001908083835b6020831061131457805182526020820191506020810190506020830392506112f1565b6001836020036101000a03801982511681845116808217855250505050505090500183815260200182805190602001908083835b6020831061136b5780518252602082019150602081019050602083039250611348565b6001836020036101000a03801982511681845116808217855250505050505090500194505050505060405160208183030381529060405280519060200120611f63565b8199505050505050505050509392505050565b60008073ffffffffffffffffffffffffffffffffffffffff16600260009054906101000a900473ffffffffffffffffffffffffffffffffffffffff1673ffffffffffffffffffffffffffffffffffffffff16148061144957506000611447600260009054906101000a900473ffffffffffffffffffffffffffffffffffffffff16611f7f565b145b1561145a576114586000611f8a565b505b600260009054906101000a900473ffffffffffffffffffffffffffffffffffffffff1673ffffffffffffffffffffffffffffffffffffffff166338cc48316040518163ffffffff1660e01b8152600401602060405180830381600087803b1580156114c457600080fd5b505af11580156114d8573d6000803e3d6000fd5b505050506040513d60208110156114ee57600080fd5b810190808051906020019092919050505073ffffffffffffffffffffffffffffffffffffffff16600160009054906101000a900473ffffffffffffffffffffffffffffffffffffffff1673ffffffffffffffffffffffffffffffffffffffff161461163957600260009054906101000a900473ffffffffffffffffffffffffffffffffffffffff1673ffffffffffffffffffffffffffffffffffffffff166338cc48316040518163ffffffff1660e01b8152600401602060405180830381600087803b1580156115bd57600080fd5b505af11580156115d1573d6000803e3d6000fd5b505050506040513d60208110156115e757600080fd5b8101908080519060200190929190505050600160006101000a81548173ffffffffffffffffffffffffffffffffffffffff021916908373ffffffffffffffffffffffffffffffffffffffff1602179055505b600160009054906101000a900473ffffffffffffffffffffffffffffffffffffffff1673ffffffffffffffffffffffffffffffffffffffff1663c281d19e6040518163ffffffff1660e01b815260040160206040518083038186803b1580156116a157600080fd5b505afa1580156116b5573d6000803e3d6000fd5b505050506040513d60208110156116cb57600080fd5b8101908080519060200190929190505050905090565b6000600960008373ffffffffffffffffffffffffffffffffffffffff1673ffffffffffffffffffffffffffffffffffffffff1681526020019081526020016000205490506001811415611781576002600a60008473ffffffffffffffffffffffffffffffffffffffff1673ffffffffffffffffffffffffffffffffffffffff16815260200190815260200160002060008282540292505081905550611819565b6002600a60008473ffffffffffffffffffffffffffffffffffffffff1673ffffffffffffffffffffffffffffffffffffffff16815260200190815260200160002054026007600082825403925050819055506000600a60008473ffffffffffffffffffffffffffffffffffffffff1673ffffffffffffffffffffffffffffffffffffffff168152602001908152602001600020819055505b6000600b60008473ffffffffffffffffffffffffffffffffffffffff1673ffffffffffffffffffffffffffffffffffffffff16815260200190815260200160002060006101000a81548160ff0219169083151502179055505050565b60008073ffffffffffffffffffffffffffffffffffffffff16600260009054906101000a900473ffffffffffffffffffffffffffffffffffffffff1673ffffffffffffffffffffffffffffffffffffffff1614806118fd575060006118fb600260009054906101000a900473ffffffffffffffffffffffffffffffffffffffff16611f7f565b145b1561190e5761190c6000611f8a565b505b600260009054906101000a900473ffffffffffffffffffffffffffffffffffffffff1673ffffffffffffffffffffffffffffffffffffffff166338cc48316040518163ffffffff1660e01b8152600401602060405180830381600087803b15801561197857600080fd5b505af115801561198c573d6000803e3d6000fd5b505050506040513d60208110156119a257600080fd5b810190808051906020019092919050505073ffffffffffffffffffffffffffffffffffffffff16600160009054906101000a900473ffffffffffffffffffffffffffffffffffffffff1673ffffffffffffffffffffffffffffffffffffffff1614611aed57600260009054906101000a900473ffffffffffffffffffffffffffffffffffffffff1673ffffffffffffffffffffffffffffffffffffffff166338cc48316040518163ffffffff1660e01b8152600401602060405180830381600087803b158015611a7157600080fd5b505af1158015611a85573d6000803e3d6000fd5b505050506040513d6020811015611a9b57600080fd5b8101908080519060200190929190505050600160006101000a81548173ffffffffffffffffffffffffffffffffffffffff021916908373ffffffffffffffffffffffffffffffffffffffff1602179055505b600160009054906101000a900473ffffffffffffffffffffffffffffffffffffffff1673ffffffffffffffffffffffffffffffffffffffff1663abaa5f3e6040518163ffffffff1660e01b815260040160206040518083038186803b158015611b5557600080fd5b505afa158015611b69573d6000803e3d6000fd5b505050506040513d6020811015611b7f57600080fd5b8101908080519060200190929190505050905090565b6060600082850190508084511015611bac57600080fd5b600086602001905060008460200190505b868860200101821015611be55781890151808288015250602082019150602081019050611bbd565b85935050505095945050505050565b60008073ffffffffffffffffffffffffffffffffffffffff16600260009054906101000a900473ffffffffffffffffffffffffffffffffffffffff1673ffffffffffffffffffffffffffffffffffffffff161480611c7c57506000611c7a600260009054906101000a900473ffffffffffffffffffffffffffffffffffffffff16611f7f565b145b15611c8d57611c8b6000611f8a565b505b600260009054906101000a900473ffffffffffffffffffffffffffffffffffffffff1673ffffffffffffffffffffffffffffffffffffffff166338cc48316040518163ffffffff1660e01b8152600401602060405180830381600087803b158015611cf757600080fd5b505af1158015611d0b573d6000803e3d6000fd5b505050506040513d6020811015611d2157600080fd5b810190808051906020019092919050505073ffffffffffffffffffffffffffffffffffffffff16600160009054906101000a900473ffffffffffffffffffffffffffffffffffffffff1673ffffffffffffffffffffffffffffffffffffffff1614611e6c57600260009054906101000a900473ffffffffffffffffffffffffffffffffffffffff1673ffffffffffffffffffffffffffffffffffffffff166338cc48316040518163ffffffff1660e01b8152600401602060405180830381600087803b158015611df057600080fd5b505af1158015611e04573d6000803e3d6000fd5b505050506040513d6020811015611e1a57600080fd5b8101908080519060200190929190505050600160006101000a81548173ffffffffffffffffffffffffffffffffffffffff021916908373ffffffffffffffffffffffffffffffffffffffff1602179055505b60606004604051908082528060200260200182016040528015611ea357816020015b6060815260200190600190039081611e8e5790505b50905083600060048110611eb357fe5b602002015181600081518110611ec557fe5b602002602001018190525083600160048110611edd57fe5b602002015181600181518110611eef57fe5b602002602001018190525083600260048110611f0757fe5b602002015181600281518110611f1957fe5b602002602001018190525083600360048110611f3157fe5b602002015181600381518110611f4357fe5b6020026020010181905250611f59858285611f9b565b9150509392505050565b8060046000848152602001908152602001600020819055505050565b6000813b9050919050565b6000611f94612501565b9050919050565b60008073ffffffffffffffffffffffffffffffffffffffff16600260009054906101000a900473ffffffffffffffffffffffffffffffffffffffff1673ffffffffffffffffffffffffffffffffffffffff16148061202357506000612021600260009054906101000a900473ffffffffffffffffffffffffffffffffffffffff16611f7f565b145b15612034576120326000611f8a565b505b600260009054906101000a900473ffffffffffffffffffffffffffffffffffffffff1673ffffffffffffffffffffffffffffffffffffffff166338cc48316040518163ffffffff1660e01b8152600401602060405180830381600087803b15801561209e57600080fd5b505af11580156120b2573d6000803e3d6000fd5b505050506040513d60208110156120c857600080fd5b810190808051906020019092919050505073ffffffffffffffffffffffffffffffffffffffff16600160009054906101000a900473ffffffffffffffffffffffffffffffffffffffff1673ffffffffffffffffffffffffffffffffffffffff161461221357600260009054906101000a900473ffffffffffffffffffffffffffffffffffffffff1673ffffffffffffffffffffffffffffffffffffffff166338cc48316040518163ffffffff1660e01b8152600401602060405180830381600087803b15801561219757600080fd5b505af11580156121ab573d6000803e3d6000fd5b505050506040513d60208110156121c157600080fd5b8101908080519060200190929190505050600160006101000a81548173ffffffffffffffffffffffffffffffffffffffff021916908373ffffffffffffffffffffffffffffffffffffffff1602179055505b6000600160009054906101000a900473ffffffffffffffffffffffffffffffffffffffff1673ffffffffffffffffffffffffffffffffffffffff16632ef3accc86856040518363ffffffff1660e01b81526004018080602001838152602001828103825284818151815260200191508051906020019080838360005b838110156122aa57808201518184015260208101905061228f565b50505050905090810190601f1680156122d75780820380516001836020036101000a031916815260200191505b509350505050602060405180830381600087803b1580156122f757600080fd5b505af115801561230b573d6000803e3d6000fd5b505050506040513d602081101561232157600080fd5b81019080805190602001909291905050509050823a02670de0b6b3a764000001811115612354576000801b9150506124fa565b606061235f85612a58565b9050600160009054906101000a900473ffffffffffffffffffffffffffffffffffffffff1673ffffffffffffffffffffffffffffffffffffffff1663c55c1cb68360008985896040518663ffffffff1660e01b8152600401808581526020018060200180602001848152602001838103835286818151815260200191508051906020019080838360005b838110156124045780820151818401526020810190506123e9565b50505050905090810190601f1680156124315780820380516001836020036101000a031916815260200191505b50838103825285818151815260200191508051906020019080838360005b8381101561246a57808201518184015260208101905061244f565b50505050905090810190601f1680156124975780820380516001836020036101000a031916815260200191505b5096505050505050506020604051808303818588803b1580156124b957600080fd5b505af11580156124cd573d6000803e3d6000fd5b50505050506040513d60208110156124e457600080fd5b8101908080519060200190929190505050925050505b9392505050565b600080612521731d3b2638a7cc9f2cb3d298a3da7a90b67e5506ed611f7f565b11156125c357731d3b2638a7cc9f2cb3d298a3da7a90b67e5506ed600260006101000a81548173ffffffffffffffffffffffffffffffffffffffff021916908373ffffffffffffffffffffffffffffffffffffffff1602179055506125ba6040518060400160405280600b81526020017f6574685f6d61696e6e6574000000000000000000000000000000000000000000815250612ad8565b60019050612a55565b60006125e273c03a2615d5efaf5f49f60b7bb6583eaec212fdf1611f7f565b11156126845773c03a2615d5efaf5f49f60b7bb6583eaec212fdf1600260006101000a81548173ffffffffffffffffffffffffffffffffffffffff021916908373ffffffffffffffffffffffffffffffffffffffff16021790555061267b6040518060400160405280600c81526020017f6574685f726f707374656e330000000000000000000000000000000000000000815250612ad8565b60019050612a55565b60006126a373b7a07bcf2ba2f2703b24c0691b5278999c59ac7e611f7f565b11156127455773b7a07bcf2ba2f2703b24c0691b5278999c59ac7e600260006101000a81548173ffffffffffffffffffffffffffffffffffffffff021916908373ffffffffffffffffffffffffffffffffffffffff16021790555061273c6040518060400160405280600981526020017f6574685f6b6f76616e0000000000000000000000000000000000000000000000815250612ad8565b60019050612a55565b600061276473146500cfd35b22e4a392fe0adc06de1a1368ed48611f7f565b11156128065773146500cfd35b22e4a392fe0adc06de1a1368ed48600260006101000a81548173ffffffffffffffffffffffffffffffffffffffff021916908373ffffffffffffffffffffffffffffffffffffffff1602179055506127fd6040518060400160405280600b81526020017f6574685f72696e6b656279000000000000000000000000000000000000000000815250612ad8565b60019050612a55565b600061282573a2998efd205fb9d4b4963afb70778d6354ad3a41611f7f565b11156128c75773a2998efd205fb9d4b4963afb70778d6354ad3a41600260006101000a81548173ffffffffffffffffffffffffffffffffffffffff021916908373ffffffffffffffffffffffffffffffffffffffff1602179055506128be6040518060400160405280600a81526020017f6574685f676f65726c6900000000000000000000000000000000000000000000815250612ad8565b60019050612a55565b60006128e6736f485c8bf6fc43ea212e93bbf8ce046c7f1cb475611f7f565b111561294a57736f485c8bf6fc43ea212e93bbf8ce046c7f1cb475600260006101000a81548173ffffffffffffffffffffffffffffffffffffffff021916908373ffffffffffffffffffffffffffffffffffffffff16021790555060019050612a55565b60006129697320e12a1f859b3feae5fb2a0a32c18f5a65555bbf611f7f565b11156129cd577320e12a1f859b3feae5fb2a0a32c18f5a65555bbf600260006101000a81548173ffffffffffffffffffffffffffffffffffffffff021916908373ffffffffffffffffffffffffffffffffffffffff16021790555060019050612a55565b60006129ec7351efaf4c8b3c9afbd5ab9f4bbc82784ab6ef8faa611f7f565b1115612a50577351efaf4c8b3c9afbd5ab9f4bbc82784ab6ef8faa600260006101000a81548173ffffffffffffffffffffffffffffffffffffffff021916908373ffffffffffffffffffffffffffffffffffffffff16021790555060019050612a55565b600090505b90565b6060612a62612af2565b612a6a612ea2565b612a7681610400612afe565b612a7f81612b48565b60008090505b8351811015612ac157612ab4848281518110612a9d57fe5b602002602001015183612b5690919063ffffffff16565b8080600101915050612a85565b50612acb81612b7b565b8060000151915050919050565b8060039080519060200190612aee929190612ebc565b5050565b60405180590338823950565b6000819050600060208281612b0f57fe5b0614612b285760208181612b1f57fe5b06602003810190505b808360200181815250506040518084526000815281810160405250505050565b612b53816004612b89565b50565b612b638260028351612baa565b612b768183612cea90919063ffffffff16565b505050565b612b86816007612b89565b50565b612ba6601f60058360ff16901b1783612d9590919063ffffffff16565b5050565b60178111612bd657612bd18160058460ff16901b60ff161784612d9590919063ffffffff16565b612ce5565b60ff8111612c1757612bfb601860058460ff16901b1784612d9590919063ffffffff16565b612c1181600185612dd59092919063ffffffff16565b50612ce4565b61ffff8111612c5957612c3d601960058460ff16901b1784612d9590919063ffffffff16565b612c5381600285612dd59092919063ffffffff16565b50612ce3565b63ffffffff8111612c9d57612c81601a60058460ff16901b1784612d9590919063ffffffff16565b612c9781600485612dd59092919063ffffffff16565b50612ce2565b67ffffffffffffffff8111612ce157612cc9601b60058460ff16901b1784612d9590919063ffffffff16565b612cdf81600885612dd59092919063ffffffff16565b505b5b5b5b5b505050565b612cf2612ea2565b82602001518360000151518351011115612d2257612d21836002612d1b86602001518651612e3c565b02612e58565b5b60008060008451905085518051602081830101945086518101825260208701935050505b60208110612d695781518352602083019250602082019150602081039050612d46565b60006001826020036101000a039050801983511681855116818117865250508694505050505092915050565b81602001516001836000015151011115612dbb57612dba826002846020015102612e58565b5b815180516020818301018381536001820183525050505050565b612ddd612ea2565b836020015184600001515183011115612e0b57612e0a846002612e04876020015186612e3c565b02612e58565b5b60006001836101000a0390508451805184818301018684198251161781528582018352505050849150509392505050565b600081831115612e4e57829050612e52565b8190505b92915050565b606082600001519050612e6b8383612afe565b612e758382612cea565b50505050565b60405180608001604052806004905b6060815260200190600190039081612e8a5790505090565b604051806040016040528060608152602001600081525090565b828054600181600116156101000203166002900490600052602060002090601f016020900481019282601f10612efd57805160ff1916838001178555612f2b565b82800160010185558215612f2b579182015b82811115612f2a578251825591602001919060010190612f0f565b5b509050612f389190612f3c565b5090565b612f5e91905b80821115612f5a576000816000905550600101612f42565b5090565b9056fe596f7520617265207374696c6c2077616974696e6720666f7220726573756c74734e6f7420656e6f7567682062616c616e636520696e20706f7420746f20636f76657220796f75722062657450726f7661626c6520726571756573742073656e742e2057616974696e6720666f7220726573706f6e73652e2e2e596f75206e656564206174206c6561737420302e3120657468657220746f20706c6179a265627a7a7231582076f919772aabace8dd761797dcb7cea650fa2f2d1bba1cee2c82c7ca6d372dc164736f6c634300050c0032",
  "source": "// SPDX-License-Identifier: UNLICENSED\npragma solidity 0.5.12;\nimport \"./Ownable.sol\";\nimport \"./provableAPI.sol\";\n\ncontract coinFlip is Ownable, usingProvable {\n\n    uint256 constant RANDOM_BYTES = 1;                  //Number of bytes being requested from Oracle.\n    uint private pot;                                   //Global variable tracking contract balance.\n    uint private committedPot;                          //Variable to track balance of pot claimable by players.\n    mapping(bytes32 => address) private playerQuery;    //Mapping to tie Oracle query to each player.\n    mapping(address => uint) private playerOutcome;     //Mapping to track win/loss outcome for each player.\n    mapping(address => uint) private playerBalance;     //Mapping to track balance placed as bet by each player.\n    mapping(address => bool) private awaitingQuery;     //Tracks players awaiting response from Oracle.\n    event LogNewQuery(string);                          //Event generated after each Oracle query is submitted.\n    event generatedRandomNumber(uint256);               //Event generated after Oracle callback with new random number.\n\n    /** @notice Allow player to add ETH balance to his/her account.\n      *  Minimun amount to add = 0.1 Ether.\n      *  Player may not increase bet while waiting for Oracle response.\n      *  Balance to be added to be determined by transaction value.\n      *  Updated balance will be shown to user in browser.\n     **/\n    function placeBet() public payable {\n      require(msg.value >= 0.1 ether);\n      require(!awaitingQuery[msg.sender]);\n      playerBalance[msg.sender] += msg.value;\n      pot += msg.value;\n      committedPot += msg.value;\n    }\n\n    /** @notice Issues query to Oracle for a random number.\n      * User must pay the gas fee and bet atleast 0.1 ether.\n      * User cannot make another Oracle request while awaiting another query.\n      * player balance to bet must not exceed half the size of the available pot.\n     **/\n    function startFlipCoin() public payable {\n      require(playerBalance[msg.sender] <= ((pot - committedPot) / 2),\"Not enough balance in pot to cover your bet\");\n      require(playerBalance[msg.sender] >= 0.1 ether, \"You need at least 0.1 ether to play\");\n      require(!awaitingQuery[msg.sender],\"You are still waiting for results\");\n\n      //bytes32 queryId = devQuery();                     ////For testing only!\n\n      uint256 QUERY_EXECUTION_DELAY = 0;                //Delay before Oracle executes query. Should be no delay.\n      uint256 GAS_FOR_CALLBACK = 200000;                //Gas needed for Oracle callback transaction. Paid by user.\n      bytes32 queryId = provable_newRandomDSQuery(      //Query ID to be used to track outcome for each player.\n        QUERY_EXECUTION_DELAY,\n        RANDOM_BYTES,\n        GAS_FOR_CALLBACK);\n\n\n      playerQuery[queryId] = msg.sender;\n      awaitingQuery[msg.sender] = true;\n      committedPot += playerBalance[msg.sender];        //Reserve pot balance in case player wins.\n      emit LogNewQuery(\"Provable request sent. Waiting for response...\");\n\n      //__callback(queryId, \"1\", bytes(\"test\"));          //For testing only!\n\n    }\n\n    /*\n    function devQuery() private returns (bytes32){      //For testing only!\n      return bytes32(keccak256(\"test\"));\n    }\n    */\n\n    /** @notice Private function to be called once Oracle calls back contract with response.\n      * Function will then determine the win/lose case for the given player.\n      * @param player is the address of player who initiated Oracle call.\n     **/\n    function resolveFlip(address player) private {\n      uint outcome = playerOutcome[player];\n      if(outcome == 1){\n        playerBalance[player] *= 2;\n      }\n      else{\n        committedPot -= (playerBalance[player]*2);\n        playerBalance[player] = 0;\n      }\n      awaitingQuery[player] = false;\n    }\n\n    /** @notice Allows player to withdraw their winnings from the contracts pot.\n      *  Amount to be withdrawn must be less than or equal to the player's balance.\n      *  Players may not withdraw bet while awaiting for Oracle query.\n      * @param amount is ether value to be paid to player.\n     **/\n    function payOut(uint amount) public {\n      require(amount <= playerBalance[msg.sender]);\n      require(!awaitingQuery[msg.sender]);\n\n      playerBalance[msg.sender] -= amount;\n      pot -= amount;\n      committedPot -= amount;\n      msg.sender.transfer(amount);\n    }\n\n    /** @notice Getter function for player's current ether balance.\n      * @return returns the current balance bet by the player.\n     **/\n\n    function getBalance() public view returns(uint){\n      return playerBalance[msg.sender];\n    }\n\n    /** @notice Getter function to obtain current balance of contract.\n     **/\n    function getPot() public view returns (uint){\n      return pot;\n    }\n\n    /** @notice Getter function to obtain current balance of contract claimable by players.\n     **/\n    function getCommitedPot() public view returns (uint){\n      return committedPot;\n    }\n\n    /** @notice Admin function to add claimable ether balance to the contract.\n     **/\n    function addPot() public payable onlyOwner {\n      pot += msg.value;\n    }\n\n    /** @notice Admin function to remove specified available ether balance\n     *  from the contract.\n     *  Admin is not allowed to withdraw balance claimable by players.\n     *  @param amount is balance to be withdrawn from contract.\n     **/\n    function removePot(uint amount) public onlyOwner {\n      require(amount <= (pot - committedPot));\n      pot -= amount;\n      msg.sender.transfer(amount);\n    }\n\n    /** @notice Admin function to unlock player funds in case of Oracle failure.\n      * To be used in case of emergency funds recovery.\n     **/\n     function unlockPlayer(address player) public onlyOwner {\n       awaitingQuery[player] = false;\n     }\n\n    /** @notice Oracle call function returning a random string.\n      * Function hashes the string to produce pseudo-random number either 0 or 1.\n      * @param _queryId is used to determine player who called this query.\n      * @param _result is random string generated by Oracle.\n      * @param _proof is unused.\n     **/\n    function __callback(bytes32 _queryId, string memory _result, bytes memory _proof) public {\n      require(msg.sender == provable_cbAddress());\n      address player = playerQuery[_queryId];                                       //Variable to hold address of player who called this query.\n      require(awaitingQuery[player]);\n      uint256 randomNumber = uint256(keccak256(abi.encodePacked(_result))) % 2;     //Hashing of string _result to produce pseudo-random number.\n      playerOutcome[player] = randomNumber;\n      emit generatedRandomNumber(randomNumber);\n      resolveFlip(player);\n    }\n\n}\n",
  "sourcePath": "/home/bigbrotha/Desktop/coinFlip/contracts/coinFlip.sol",
  "compiler": {
    "name": "solc",
    "version": "0.5.12+commit.7709ece9.Emscripten.clang"
  },
  "schemaVersion": "3.2.0",
  "updatedAt": "2020-08-07T17:54:01.884Z",
  "networkType": "ethereum",
  "devdoc": {
    "methods": {
      "__callback(bytes32,string)": {
        "details": "The following `__callback` functions are just placeholders ideally     meant to be defined in child contract when proofs are used.     The function bodies simply silence compiler warnings."
      },
      "__callback(bytes32,string,bytes)": {
        "params": {
          "_proof": "is unused.*",
          "_queryId": "is used to determine player who called this query.",
          "_result": "is random string generated by Oracle."
        }
      },
      "getBalance()": {
        "return": "returns the current balance bet by the player.*"
      },
      "payOut(uint256)": {
        "params": {
          "amount": "is ether value to be paid to player.*"
        }
      },
      "removePot(uint256)": {
        "params": {
          "amount": "is balance to be withdrawn from contract.*"
        }
      }
    }
  },
  "userdoc": {
    "methods": {
      "__callback(bytes32,string,bytes)": {
        "notice": "Oracle call function returning a random string. Function hashes the string to produce pseudo-random number either 0 or 1."
      },
      "addPot()": {
        "notice": "Admin function to add claimable ether balance to the contract.*"
      },
      "getBalance()": {
        "notice": "Getter function for player's current ether balance."
      },
      "getCommitedPot()": {
        "notice": "Getter function to obtain current balance of contract claimable by players.*"
      },
      "getPot()": {
        "notice": "Getter function to obtain current balance of contract.*"
      },
      "payOut(uint256)": {
        "notice": "Allows player to withdraw their winnings from the contracts pot. Amount to be withdrawn must be less than or equal to the player's balance. Players may not withdraw bet while awaiting for Oracle query."
      },
      "placeBet()": {
        "notice": "Allow player to add ETH balance to his/her account. Minimun amount to add = 0.1 Ether. Player may not increase bet while waiting for Oracle response. Balance to be added to be determined by transaction value. Updated balance will be shown to user in browser.*"
      },
      "removePot(uint256)": {
        "notice": "Admin function to remove specified available ether balance from the contract. Admin is not allowed to withdraw balance claimable by players."
      },
      "startFlipCoin()": {
        "notice": "Issues query to Oracle for a random number. User must pay the gas fee and bet atleast 0.1 ether. User cannot make another Oracle request while awaiting another query. player balance to bet must not exceed half the size of the available pot.*"
      },
      "unlockPlayer(address)": {
        "notice": "Admin function to unlock player funds in case of Oracle failure. To be used in case of emergency funds recovery.*"
      }
    }
  }
}